:040000000DEF00F010
:040008005BEF26F094
:06001800FF00FFEF29F0DC
:1026000000204F00000000000000665200000000A3
:102610003E56000000000000000000000000000026
:1026200000000000000000000000000000000000AA
:1026300000000000000000000000000000CA55007B
:10264000A85500865500000000C25100000000009F
:1026500000000000006A5600000000436F756E74B1
:1026600065722076616C756520666F722070756C7E
:1026700073653A202566200D0A004E657720636F4A
:10268000756E742063616E2062652073746172746C
:1026900065642E200D0A00252E3266205365636F77
:0F26A0006E64200D0A00696E66006E616E0000A8
:1026B000000E0501926F6CC593F56DC594F56EC55E
:1026C00095F56FC596F596BF6AEF13F068EF13F0B6
:1026D0007EEF13F0010E926F93C513F594C514F5B8
:1026E00095C515F596C516F51BEC2AF013C593F59F
:1026F00014C594F515C595F516C596F5000E05019A
:10270000986F000E976FECC582F5EDC583F5925179
:10271000D8B48DEF13F08FEF13F0A3EF13F09251B5
:10272000D8A495EF13F097EF13F09DEF13F0000E80
:10273000786F2B0E776FA1EF13F0000E786F2D0ED0
:10274000776F77C592F593C513F594C514F595C5C4
:1027500015F596C516F5F7EC24F013041410D8A45B
:10276000B4EF13F0B6EF13F0E9EF13F00501925157
:10277000D8B4BDEF13F0BFEF13F0C8EF13F092C55C
:1027800000F68207D8A08307000E986F010E976F9E
:10279000000E9725136E060E9821146EA60E156E68
:1027A000260E166E7BEC29F00501FD0E8227FF0E2A
:1027B00083236AC526F56BC527F5000E286E060E25
:1027C000296E82C52AF583C52BF546EC28F067EF04
:1027D00018F093C513F594C514F595C515F596C570
:1027E00016F5F7EC24F013501410D8A4FAEF13F0F8
:1027F000FCEF13F02FEF14F005019251D8B403EF62
:1028000014F005EF14F00EEF14F092C500F68207F5
:10281000D8A08307000E986F010E976F000E9725C2
:10282000136E060E9821146EAA0E156E260E166EE5
:102830007BEC29F00501FD0E8227FF0E83236AC57C
:1028400026F56BC527F5000E286E060E296E82C58B
:102850002AF583C52BF546EC28F067EF18F0000E3B
:102860000501996F000E9A6F800E9B6F3F0E9C6F53
:10287000000E816F000E806F93C513F594C514F59B
:1028800095C515F596C516F5000E176E000E186E57
:10289000000E196E000E1A6EF1EC27F0D8B053EF4F
:1028A00014F055EF14F034EF15F062EF14F084C516
:1028B00099F585C59AF586C59BF587C59CF50501F3
:1028C000804B812B99C513F59AC514F59BC515F559
:1028D0009CC516F5000E176E000E186E200E196EB0
:1028E000410E1A6E28EC1DF013C584F514C585F54C
:1028F00015C586F516C587F505018451935D136EE0
:1029000085519459146E86519559156E8751965973
:10291000166E83EC28F016BE99EF14F016501510C1
:10292000141009E1020E135CD8A099EF14F09BEF8C
:1029300014F057EF14F084C52CF585C52DF586C528
:102940002EF587C52FF593C530F594C531F595C59E
:1029500032F596C533F575EC24F0D8A0B2EF14F03B
:10296000B4EF14F057EF14F005019951935D136E15
:102970009A519459146E9B519559156E9C519659C4
:10298000166E83EC28F016BED3EF14F01650151017
:10299000141007E1020E135CD8B0D1EF14F0D3EF9E
:1029A00014F01BEF15F099C593F59AC594F59BC5E6
:1029B00095F59CC596F534EF15F099C513F59AC5B4
:1029C00014F59BC515F59CC516F5000E176E000E87
:1029D000186E200E196E410E1A6E3DEC1FF013C5D5
:1029E00099F514C59AF515C59BF516C59CF5050115
:1029F0008007D8A081079951935D136E9A5194591D
:102A0000146E9B519559156E9C519659166E83EC18
:102A100028F016BE19EF15F016501510141007E126
:102A2000020E135CD8B017EF15F019EF15F01BEF7D
:102A300015F0D3EF14F093C52CF594C52DF595C57D
:102A40002EF596C52FF599C530F59AC531F59BC57C
:102A500032F59CC533F575EC24F0D8A032EF15F0B3
:102A600034EF15F0DDEF14F070C57AF57AC57BF51B
:102A700044BE3DEF15F03FEF15F045EF15F043C5AF
:102A800073F544C574F54AEF15F0000E0501746F37
:102A9000060E736F73C57EF574C57FF505017E4B19
:102AA0007F2B660E7B19D8A458EF15F05AEF15F05E
:102AB0007AEF15F081BF61EF15F05FEF15F06DEF64
:102AC00015F0000E996F000E9A6F800E9B6F3F0EEF
:102AD0009C6F000E816F000E806F670E7A19D8B45C
:102AE00074EF15F076EF15F07AEF15F080517E2730
:102AF00081517F23000E896F000E886F93C58AF580
:102B000094C58BF595C58CF596C58DF599C584F55D
:102B10009AC585F59BC586F59CC587F50BEF16F024
:102B20008AC513F58BC514F58CC515F58DC516F53D
:102B300099C517F59AC518F59BC519F59CC51AF5E1
:102B40003DEC1FF013C52CF514C52DF515C52EF55C
:102B500016C52FF54CEC22F02CC58EF52DC58FF542
:102B60002EC590F52FC591F58EC513F58FC514F5BB
:102B700090C515F591C516F5F2EC23F013C57CF55B
:102B800014C57DF58AC52CF58BC52DF58CC52EF5A4
:102B90008DC52FF58EC517F58FC518F590C519F59C
:102BA00091C51AF599C513F59AC514F59BC515F588
:102BB0009CC516F528EC1DF013C530F514C531F58C
:102BC00015C532F516C533F558EC29F02CC58AF534
:102BD0002DC58BF52EC58CF52FC58DF599C513F533
:102BE0009AC514F59BC515F59CC516F5000E176E14
:102BF000000E186E200E196E410E1A6E3DEC1FF07D
:102C000013C599F514C59AF515C59BF516C59CF520
:102C10000501884B892B7E51885D8951800A386E69
:102C20007F51800A3858D8A018EF16F01AEF16F026
:102C300090EF15F099C513F59AC514F59BC515F5D8
:102C40009CC516F5000E176E000E186EA00E196EBC
:102C5000400E1A6E28EC1DF013C58EF514C58FF5C5
:102C600015C590F516C591F58AC52CF58BC52DF5C2
:102C70008CC52EF58DC52FF58EC530F58FC531F578
:102C800090C532F591C533F575EC24F0D8B04BEF13
:102C900016F04DEF16F058EF16F0000E05018E6F8E
:102CA000000E8F6F000E906F000E916F81EF16F087
:102CB0008AC513F58BC514F58CC515F58DC516F5AC
:102CC0008EC517F58FC518F590C519F591C51AF57C
:102CD000F1EC27F0D8A06FEF16F071EF16F081EF4E
:102CE00016F005017CB177EF16F079EF16F081EF61
:102CF00016F0000E8E6F000E8F6F000E906F000E9C
:102D0000916F93C513F594C514F595C515F596C542
:102D100016F58EC517F58FC518F590C519F591C52F
:102D20001AF568EC18F013C58AF514C58BF515C5AE
:102D30008CF516C58DF58AC52CF58BC52DF58CC582
:102D40002EF58DC52FF5000E176E000E186E200E95
:102D5000196E410E1A6E84C513F585C514F586C526
:102D600015F587C516F528EC1DF013C530F514C50B
:102D700031F515C532F516C533F575EC24F0D8A03C
:102D8000C4EF16F0C6EF16F0EFEF16F00501804B1A
:102D9000812B84C513F585C514F586C515F587C542
:102DA00016F5000E176E000E186E200E196E410EED
:102DB0001A6E28EC1DF013C584F514C585F515C5EC
:102DC00086F516C587F5660E05017B19D8A4EBEFCD
:102DD00016F0EDEF16F0EFEF16F07E4B7F2B84C56B
:102DE00099F585C59AF586C59BF587C59CF580C57F
:102DF00071F581C572F5000E0501796F000E766FD1
:102E0000000E756F000E896F000E886FEDEF17F0E2
:102E10008AC513F58BC514F58CC515F58DC516F54A
:102E200099C517F59AC518F59BC519F59CC51AF5EE
:102E30003DEC1FF013C52CF514C52DF515C52EF569
:102E400016C52FF54CEC22F02CC58EF52DC58FF54F
:102E50002EC590F52FC591F58EC513F58FC514F5C8
:102E600090C515F591C516F5F2EC23F014BE44EFAC
:102E700017F0145007E10A0E135CD8B042EF17F0B8
:102E800044EF17F054EF17F08EC513F58FC514F506
:102E900090C515F591C516F5F2EC23F013C57CF538
:102EA00014C57DF559EF17F0000E05017D6F090E71
:102EB0007C6F05017951D8A460EF17F062EF17F02D
:102EC0008AEF17F072BF69EF17F067EF17F08AEF1C
:102ED00017F0000E9725D96E060E9821DA6E2E0E89
:102EE000DF6E974B982B8207D8A08307010E796F6E
:102EF0008AEF17F0000E9725D96E060E9821DA6E2C
:102F0000300EDF6E974B982B8207D8A0830775078A
:102F1000D8A0760775517611D8A491EF17F093EFEA
:102F200017F07AEF17F0000E9725D96E060E98214C
:102F3000DA6E7C51300FDF6E974B982B8207D8A04A
:102F400083078AC52CF58BC52DF58CC52EF58DC54F
:102F50002FF58EC517F58FC518F590C519F591C5D4
:102F60001AF599C513F59AC514F59BC515F59CC5B9
:102F700016F528EC1DF013C530F514C531F515C54F
:102F800032F516C533F558EC29F02CC58AF52DC558
:102F90008BF52EC58CF52FC58DF599C513F59AC502
:102FA00014F59BC515F59CC516F5000E176E000EA1
:102FB000186E200E196E410E1A6E3DEC1FF013C5EF
:102FC00099F514C59AF515C59BF516C59CF505012F
:102FD0007107D8A07207884B892B7E51885D895173
:102FE000800A386E7F51800A3858D8B0FAEF17F04F
:102FF000FCEF17F00AEF18F098BF08EF18F098519F
:1030000009E14B0E975DD8A008EF18F00AEF18F011
:1030100008EF17F0000E896F4F0E886F000E88259D
:10302000D96E060E8921DA6EDF6A000E386E060E42
:10303000396E9751385E9851395A88513824136E39
:1030400089513920146E000E156E060E166E97C546
:1030500017F598C518F50BEC29F005019751885D17
:10306000976F98518959986F9251D8A43AEF18F0F8
:103070003DEF18F0010E3EEF18F0000E886F896BDF
:103080009251D8B446EF18F048EF18F053EF18F00B
:103090009707D8A09807000E9725D96E060E98219D
:1030A000DA6E92C5DFF48851825F8951835B6AC50D
:1030B00026F56BC527F5000E9725286E060E98217C
:1030C000296E82C52AF583C52BF546EC28F012003F
:1030D0001650800B1F6E16501624216E15AE73EF1E
:1030E00018F075EF18F076EF18F021802150D8B461
:1030F0007CEF18F07EEF18F093EF18F02128D8A499
:1031000084EF18F086EF18F08EEF18F0000E136EB3
:10311000000E146E000E156E000E166E158E000E4B
:10312000166E9BEF18F0000E136E000E146E000E5C
:10313000156E000E166E1A50800B206E1F50201850
:10314000D8B4A5EF18F0A7EF18F0A8EF18F01F8C6F
:103150001A501A24206E19AEB0EF18F0B2EF18F022
:10316000B3EF18F020802050D8B4B9EF18F0BBEFBF
:1031700018F0D0EF18F02028D8A4C1EF18F0C3EF52
:1031800018F0CBEF18F0000E176E000E186E000E40
:10319000196E000E1A6E198E000E1A6ED8EF18F006
:1031A000000E176E000E186E000E196E000E1A6ECD
:1031B0002150205CD8B0DFEF18F0E1EF18F008EFF5
:1031C00019F01FACE6EF18F0E8EF18F0EAEF18F08E
:1031D000800E1F1A21C522F520C521F522C520F534
:1031E00013C522F517C513F522C517F514C522F529
:1031F00018C514F522C518F515C522F519C515F51C
:1032000022C519F516C522F51AC516F522C51AF5F7
:10321000000E226E215020C51BF51C6A1B5E000E9D
:103220001C5A1CBE1DEF19F01C5009E11A0E1B5C44
:10323000D8A01DEF19F01FEF19F056EF19F0135039
:10324000141015101610D8A428EF19F02BEF19F050
:10325000010E2CEF19F0000E226E000E136E000E00
:10326000146E000E156E000E166E20C521F55FEF70
:1032700019F022A03EEF19F040EF19F046EF19F0D7
:10328000D89022300109226E48EF19F0D8902232EE
:1032900013A04DEF19F04FEF19F050EF19F0228EF7
:1032A00016341632153214321332212A2050215C82
:1032B000D8A05DEF19F05FEF19F039EF19F01FBCDE
:1032C00064EF19F066EF19F0A6EF19F02150D8A4B9
:1032D0006CEF19F06EEF19F078EF19F0000E136E25
:1032E000000E146E000E156E000E166EC7EF1AF06B
:1032F0001750132618501422195015221A5016224E
:1033000016A085EF19F087EF19F033EF1AF022A01D
:103310008CEF19F08EEF19F094EF19F0D89022305D
:103320000109226E96EF19F0D890223213A09BEF7C
:1033300019F09DEF19F09EEF19F0228E1634163217
:10334000153214321332212A33EF1AF01750135C5E
:1033500018501458195015581650800A1B6E1A50E0
:10336000800A1B58D8B0B7EF19F0B9EF19F0E4EFA5
:1033700019F01350175C1B6E145018581C6E155022
:1033800019581D6E16501A581E6EFF0E1B24136E10
:10339000FF0E1C20146EFF0E1D20156EFF0E1E204A
:1033A000166E800E1F1A226C2250D8A4DAEF19F084
:1033B000DCEF19F0ECEF19F0010E1326000E1422C9
:1033C00015221622ECEF19F01750135E1850145AFC
:1033D0001950155A1A50165A135014101510161069
:1033E000D8A4F5EF19F0F7EF19F02CEF1AF02250EE
:1033F000D8A4FDEF19F0FFEF19F02CEF1AF0000E32
:10340000136E000E146E000E156E000E166EC7EFD2
:103410001AF0D890133614361536163622AE13EF3E
:103420001AF015EF1AF016EF1AF0138022A01BEF16
:103430001AF01DEF1AF021EF1AF0D880223623EF90
:103440001AF0D89022362150D8B429EF1AF02BEF79
:103450001AF02CEF1AF0210615AE31EF1AF033EF07
:103460001AF009EF1AF0000E206E22AE3AEF1AF0B1
:103470003CEF1AF054EF1AF022C51BF57F0E1B1615
:10348000D8B445EF1AF047EF1AF04BEF1AF0010EDF
:10349000206E54EF1AF013A050EF1AF052EF1AF00A
:1034A00054EF1AF047EF1AF02050D8B45AEF1AF040
:1034B0005CEF1AF087EF1AF0010E1326000E1422AB
:1034C0001522162216A067EF1AF069EF1AF087EF9F
:1034D0001AF013C51BF514C51CF515C51DF516C549
:1034E0001EF51E341E321D321C321B321BC513F555
:1034F0001CC514F51DC515F51EC516F52128D8B433
:1035000084EF1AF086EF1AF087EF1AF0212A2128AB
:10351000D8B48DEF1AF08FEF1AF097EF1AF0215010
:10352000D8A495EF1AF097EF1AF0A9EF1AF0000E51
:10353000136E000E146E000E156E000E166E2150E6
:10354000D8A4A5EF1AF0A7EF1AF0A9EF1AF0000E11
:103550001F6E21A0AEEF1AF0B0EF1AF0B3EF1AF021
:10356000158EB4EF1AF0159ED8902130166E1FAE4E
:10357000BCEF1AF0BEEF1AF0BFEF1AF0168E13C5AB
:1035800013F514C514F515C515F516C516F5120075
:103590000450800B0D6E045004240F6E03AED3EF65
:1035A0001AF0D5EF1AF0D6EF1AF00F800F50D8B4FA
:1035B000DCEF1AF0DEEF1AF0F3EF1AF00F28D8A4C0
:1035C000E4EF1AF0E6EF1AF0EEEF1AF0000E016EDB
:1035D000000E026E000E036E000E046E038E000ECF
:1035E000046EFBEF1AF0000E016E000E026E000E6C
:1035F000036E000E046E0850800B0E6E0D500E18F8
:10360000D8B405EF1BF007EF1BF008EF1BF00D8C93
:10361000085008240E6E07AE10EF1BF012EF1BF0DF
:1036200013EF1BF00E800E50D8B419EF1BF01BEFF8
:103630001BF030EF1BF00E28D8A421EF1BF023EF76
:103640001BF02BEF1BF0000E056E000E066E000E39
:10365000076E000E086E078E000E086E38EF1BF026
:10366000000E056E000E066E000E076E000E086E50
:103670000F500E5CD8B03FEF1BF041EF1BF068EF2E
:103680001BF00DAC46EF1BF048EF1BF04AEF1BF0B0
:10369000800E0D1A0FC510F50EC50FF510C50EF5ED
:1036A00001C510F505C501F510C505F502C510F5F4
:1036B00006C502F510C506F503C510F507C503F5E7
:1036C00010C507F504C510F508C504F510C508F5C3
:1036D000000E106E0F500EC509F50A6A095E000E45
:1036E0000A5A0ABE7DEF1BF00A5009E11A0E095C66
:1036F000D8A07DEF1BF07FEF1BF0B6EF1BF0015061
:10370000021003100410D8A488EF1BF08BEF1BF0FD
:10371000010E8CEF1BF0000E106E000E016E000EFD
:10372000026E000E036E000E046E0EC50FF5BFEFA5
:103730001BF010A09EEF1BF0A0EF1BF0A6EF1BF0FC
:10374000D89010300109106EA8EF1BF0D8901032FD
:1037500001A0ADEF1BF0AFEF1BF0B0EF1BF0108E30
:10376000043404320332023201320F2A0E500F5C4D
:10377000D8A0BDEF1BF0BFEF1BF099EF1BF00DBC05
:10378000C4EF1BF0C6EF1BF006EF1CF00F50D8A4DF
:10379000CCEF1BF0CEEF1BF0D8EF1BF0000E016E4C
:1037A000000E026E000E036E000E046E27EF1DF079
:1037B0000550012606500222075003220850042219
:1037C00004A0E5EF1BF0E7EF1BF093EF1CF010A057
:1037D000ECEF1BF0EEEF1BF0F4EF1BF0D890103085
:1037E0000109106EF6EF1BF0D890103201A0FBEF2C
:1037F0001BF0FDEF1BF0FEEF1BF0108E04340432C3
:103800000332023201320F2A93EF1CF00550015CA3
:1038100006500258075003580450800A096E085099
:10382000800A0958D8B017EF1CF019EF1CF044EFCC
:103830001CF00150055C096E025006580A6E0350D8
:1038400007580B6E045008580C6EFF0E0924016EC9
:10385000FF0E0A20026EFF0E0B20036EFF0E0C20DF
:10386000046E800E0D1A106C1050D8A43AEF1CF0A4
:103870003CEF1CF04CEF1CF0010E0126000E022262
:10388000032204224CEF1CF00550015E0650025A40
:103890000750035A0850045A015002100310041034
:1038A000D8A455EF1CF057EF1CF08CEF1CF0105013
:1038B000D8A45DEF1CF05FEF1CF08CEF1CF0000E45
:1038C000016E000E026E000E036E000E046E27EFF6
:1038D0001DF0D890013602360336043610AE73EF71
:1038E0001CF075EF1CF076EF1CF0018010A07BEF50
:1038F0001CF07DEF1CF081EF1CF0D880103683EFB8
:103900001CF0D89010360F50D8B489EF1CF08BEF14
:103910001CF08CEF1CF00F0603AE91EF1CF093EF40
:103920001CF069EF1CF0000E0E6E10AE9AEF1CF04A
:103930009CEF1CF0B4EF1CF010C509F57F0E0916C2
:10394000D8B4A5EF1CF0A7EF1CF0ABEF1CF0010EF4
:103950000E6EB4EF1CF001A0B0EF1CF0B2EF1CF043
:10396000B4EF1CF0A7EF1CF00E50D8B4BAEF1CF067
:10397000BCEF1CF0E7EF1CF0010E0126000E022246
:103980000322042204A0C7EF1CF0C9EF1CF0E7EFEC
:103990001CF001C509F502C50AF503C50BF504C500
:1039A0000CF50C340C320B320A32093209C501F520
:1039B0000AC502F50BC503F50CC504F50F28D8B4EC
:1039C000E4EF1CF0E6EF1CF0E7EF1CF00F2A0F28E5
:1039D000D8B4EDEF1CF0EFEF1CF0F7EF1CF00F5038
:1039E000D8A4F5EF1CF0F7EF1CF009EF1DF0000E66
:1039F000016E000E026E000E036E000E046E0F507C
:103A0000D8A405EF1DF007EF1DF009EF1DF0000E23
:103A10000D6E0FA00EEF1DF010EF1DF013EF1DF057
:103A2000038E14EF1DF0039ED8900F30046E0DAE80
:103A30001CEF1DF01EEF1DF01FEF1DF0048E01C5E1
:103A400001F502C502F503C503F504C504F512002E
:103A50001650800B1F6E16501624256E15AE33EFD0
:103A60001DF035EF1DF036EF1DF025802550D8B440
:103A70003CEF1DF03EEF1DF051EF1DF02528D8A4BE
:103A800044EF1DF046EF1DF04EEF1DF0000E136EDB
:103A9000000E146E000E156E000E166E158E59EF88
:103AA0001DF0000E136E000E146E000E156E000E4B
:103AB000166E1A50800B1F1A1A501A24206E19AE57
:103AC00064EF1DF066EF1DF067EF1DF020802050C1
:103AD000D8B46DEF1DF06FEF1DF082EF1DF02028C0
:103AE000D8A475EF1DF077EF1DF07FEF1DF0000EED
:103AF000176E000E186E000E196E000E1A6E198EDB
:103B00008AEF1DF0000E176E000E186E000E196E73
:103B1000000E1A6E2050D8B490EF1DF092EF1DF0F9
:103B20009AEF1DF02550D8A498EF1DF09AEF1DF0E4
:103B3000A4EF1DF0000E136E000E146E000E156E35
:103B4000000E166E3CEF1FF019501302F3C42AF555
:103B5000F4C42BF52A50216E226A236A246A2B5062
:103B6000266E276A286A296A18501402F3C42AF5B7
:103B7000F4C42BF52A502126000E222223222422CF
:103B80002B502626000E2722282229221750150204
:103B9000F3C42AF5F4C42BF52A502126000E222264
:103BA000232224222B502626000E272228222922D7
:103BB00023C524F522C523F521C522F5216A175016
:103BC0001402F3C42AF5F4C42BF52A5021262B50F5
:103BD0002222000E2322000E242218501302F3C4C6
:103BE0002AF5F4C42BF52A5021262B502222000E50
:103BF0002322000E242223C524F522C523F521C546
:103C000022F5216A17501302F3C42AF5F4C42BF5E8
:103C10002A5021262B502222000E2322000E24227D
:103C200019501402F3C42AF5F4C42BF52A502626A1
:103C30002B502722000E2822000E29221850150290
:103C4000F3C42AF5F4C42BF52A5026262B5027223C
:103C5000000E2822000E292219501502F3C42AF55D
:103C6000F4C42BF52A501B6E2B501C6E1D6A1E6A65
:103C70001DC51EF51CC51DF51BC51CF51B6A1B507B
:103C800026261C5027221D5028221E50292221C5DD
:103C90001BF522C51CF523C51DF524C51EF5190EFF
:103CA00057EF1EF0D8901E321D321C321B32E82E08
:103CB00052EF1EF01B5026261C5027221D50282292
:103CC0001E50292223C524F522C523F521C522F53E
:103CD000216A205025C51BF51C6A1B26000E1C22DC
:103CE000820E1B242A6EFF0E1C202B6E8DEF1EF001
:103CF000D890263627362836293624AE82EF1EF095
:103D000084EF1EF085EF1EF02680D89021362236F3
:103D1000233624362A06D8A02B0628AE92EF1EF0B2
:103D200094EF1EF078EF1EF0000E206E24AE9BEF95
:103D30001EF09DEF1EF0C1EF1EF0FF0E21141B6E52
:103D4000FF0E22141C6EFF0E23141D6E7F0E241412
:103D50001E6E1B501C101D101E10D8B4B2EF1EF0AA
:103D6000B4EF1EF0B8EF1EF0010E206EC1EF1EF092
:103D700026A0BDEF1EF0BFEF1EF0C1EF1EF0B4EFA6
:103D80001EF02050D8B4C7EF1EF0C9EF1EF0EDEFC3
:103D90001EF0010E2626000E27222822292229A005
:103DA000D4EF1EF0D6EF1EF0EDEF1EF026C51BF58A
:103DB00027C51CF528C51DF529C51EF51E341E3264
:103DC0001D321C321B321BC526F51CC527F51DC52F
:103DD00028F51EC529F52A4A2B2A2BBEF8EF1EF01E
:103DE0002B5008E12A28D8A0F8EF1EF0FAEF1EF0B9
:103DF00004EF1FF0000E266E000E276E800E286E58
:103E00007F0E296E32EF1FF02BBE11EF1FF02B50EB
:103E100006E12A04D8B00FEF1FF011EF1FF01DEFDD
:103E20001FF0000E266E000E276E000E286E000E8C
:103E3000296E000E1F6E32EF1FF02AC525F5FF0E0A
:103E40002616FF0E27167F0E2816000E291625A00F
:103E50002CEF1FF02EEF1FF02FEF1FF0288ED890C1
:103E60002530296E1F50291226C513F527C514F5D4
:103E700028C515F529C516F512001650800B236EBE
:103E8000165016242A6E15AE48EF1FF04AEF1FF0A9
:103E90004BEF1FF02A802A50D8B451EF1FF053EF98
:103EA0001FF068EF1FF02A28D8A459EF1FF05BEF2E
:103EB0001FF063EF1FF0000E136E000E146E000E65
:103EC000156E000E166E158E000E166E70EF1FF03A
:103ED000000E136E000E146E000E156E000E166EA0
:103EE0001A50800B231A1A501A242B6E19AE7BEF2E
:103EF0001FF07DEF1FF07EEF1FF02B802B50D8B40A
:103F000084EF1FF086EF1FF09BEF1FF02B28D8A443
:103F10008CEF1FF08EEF1FF096EF1FF0000E176E64
:103F2000000E186E000E196E000E1A6E198E000E1D
:103F30001A6EA3EF1FF0000E176E000E186E000E23
:103F4000196E000E1A6E1750181019101A10D8A4F6
:103F5000ACEF1FF0AEEF1FF0C6EF1FF0000E136EB8
:103F6000000E146E000E156E000E166E800E1512E9
:103F70007F0E16122350161213C513F514C514F52F
:103F800015C515F516C516F509EF21F02A50D8A468
:103F9000CCEF1FF0CEEF1FF0D8EF1FF0000E136E26
:103FA000000E146E000E156E000E166E09EF21F055
:103FB0002B502AC51BF51C6A1B5E000E1C5A7F0E77
:103FC0001B24246E000E1C20256E13C51FF514C57E
:103FD00020F515C521F516C522F5000E136E000E4D
:103FE000146E000E156E000E166E000E266E000E7C
:103FF000276E000E286E000E296E000E2B6E39EF14
:1040000020F02B50D8B407EF20F009EF20F020EF7C
:1040100020F0D8901F36203621362236D89013361D
:1040200014361536163629AE18EF20F01AEF20F0A8
:104030001BEF20F01380D8902636273628362936F5
:1040400017501F5C18502058195021581A502258E8
:10405000D8A02DEF20F02FEF20F038EF20F0298CA2
:1040600017501F5E1850205A1950215A1A50225AC0
:104070002B2A190E2B643FEF20F041EF20F001EFC7
:1040800020F01F50201021102210D8B44AEF20F049
:104090004CEF20F064EF20F0268064EF20F0D89001
:1040A000133614361536163629AE59EF20F05BEF6D
:1040B00020F05CEF20F01380D89026362736283683
:1040C00029362406D8A0250615AE69EF20F06BEF3F
:1040D00020F04FEF20F0000E2B6E29AE72EF20F093
:1040E00074EF20F098EF20F0FF0E26141B6EFF0EE9
:1040F00027141C6EFF0E28141D6E7F0E29141E6ED1
:104100001B501C101D101E10D8B489EF20F08BEF2F
:1041100020F08FEF20F0010E2B6E98EF20F013A00F
:1041200094EF20F096EF20F098EF20F08BEF20F046
:104130002B50D8B49EEF20F0A0EF20F0C4EF20F079
:10414000010E1326000E14221522162216A0ABEF24
:1041500020F0ADEF20F0C4EF20F013C51BF514C51F
:104160001CF515C51DF516C51EF51E341E321D3273
:104170001C321B321BC513F51CC514F51DC515F5E6
:104180001EC516F5244A252A25BECFEF20F025505E
:1041900008E12428D8A0CFEF20F0D1EF20F0DCEF09
:1041A00020F0000E256E2468000E136E000E146EB3
:1041B000000E156E000E166E25BEE9EF20F025509C
:1041C00006E12404D8B0E7EF20F0E9EF20F0F7EFA4
:1041D00020F0000E256E000E246E000E136E000EF1
:1041E000146E000E156E000E166E000E236E24C5A2
:1041F0002AF52AA0FEEF20F000EF21F003EF21F0D6
:10420000158E04EF21F0159ED8902A30166EBAEF65
:104210001FF012009FC5D9F4A0C5DAF4DEC4F6F48D
:10422000DDC4F7F4000EF86E0800F550250AD8A496
:104230001CEF21F01EEF21F035EF22F09FC5D9F4DD
:10424000A0C5DAF4DE2A000EDD22000E0501ED6FB6
:10425000000EEC6FECC5F0F5436844689FC5D9F4D7
:10426000A0C5DAF4DEC4F6F4DDC4F7F4000EF86E8F
:104270000800F5502E0AD8A440EF21F042EF21F0BB
:1042800057EF21F09FC5D9F4A0C5DAF4DE2A000E5D
:10429000DD229FC519F5A0C51AF5A1C51BF5A2C55C
:1042A0001CF5C4EC26F019C543F51AC544F59FC5A5
:1042B000D9F4A0C5DAF4DEC4AAF5DDC4ABF5AAC50D
:1042C000F6F4ABC5F7F4000EF86E0800F5C4A9F5D6
:1042D00076EF21F0AA4BAB2B90EF21F06C0EA96F7B
:1042E00090EF21F0000EA96F90EF21F00501A95188
:1042F000A36FA46BA451000AD8B481EF21F072EF30
:1043000021F0A3514C0AD8B46AEF21F02A0AD8B49C
:104310006EEF21F00A0AD8B46AEF21F072EF21F0B3
:10432000AAC5F6F4ABC5F7F4000EF86E0800F55018
:10433000660AD8A49EEF21F0A0EF21F02CEF22F026
:10434000D6EF21F0A1C5D9F4A2C5DAF4DFC4A3F5F4
:10435000040EDE26DFC4A4F5000EDD22A3C5D9F4C9
:10436000A4C5DAF4DEC4A5F5DEC4A6F5DEC4A7F55F
:10437000DEC4A8F5EBEF21F0A1C5D9F4A2C5DAF4AB
:10438000DFC4A3F5040EDE26DFC4A4F5000EDD2293
:10439000A3C5D9F4A4C5DAF4DEC4A5F5DEC4A6F538
:1043A000DEC4A7F5DEC4A8F5EBEF21F0A951A36F99
:1043B000A46BA451000AD8B4E0EF21F0EBEF21F098
:1043C000A3514C0AD8B4BCEF21F0200AD8B4A2EF14
:1043D00021F0EBEF21F0010EAA25A36F000EAB2117
:1043E000A46F9FC5D9F4A0C5DAF4A3C5DEF4A4C5B3
:1043F000DDF414EF22F09DC56AF59EC56BF5A5C5E9
:104400006CF5A6C56DF5A7C56EF5A8C56FF5AAC56F
:10441000F6F4ABC5F7F4000EF86E0800F5C470F5BD
:1044200058EC13F04BEF22F0AAC5F6F4ABC5F7F445
:10443000000EF86E0800F550A36FA46BA451000A9B
:10444000D8B425EF22F02CEF22F0A351660AD8B49D
:10445000FBEF21F02CEF22F09FC5D9F4A0C5DAF4D0
:10446000DE2A000EDD224BEF22F09FC5D9F4A0C555
:10447000DAF4DEC4F6F4DDC4F7F4000EF86E0800DA
:10448000F550166E176A9DC518F59EC519F52BECEB
:1044900027F02CEF22F01200CEC566F5CFC567F5E8
:1044A000D0C568F5D1C569F52CC566F52DC567F58C
:1044B0002EC568F52FC569F5810E306EFF0E316E81
:1044C00066C532F567C533F568C534F569C535F598
:1044D000180E70EF22F0D890353234323332323247
:1044E000E82E6BEF22F0325030240501646F000E8D
:1044F0003120656F65BF86EF22F0655109E1170E27
:10450000645DD8A086EF22F088EF22F092EF22F0CF
:104510002CC52CF52DC52DF52EC52EF52FC52FF547
:1045200056EF23F065BF97EF22F099EF22F00AEFE4
:1045300023F064C530F5FF0E316EFF0E326E7F0E34
:10454000336E000E346E3066A8EF22F0B0EF22F02A
:1045500034343432333232323132302EA3EF22F05F
:1045600031C560F532C561F533C562F534C563F513
:10457000050160516615306E61516715316E6251EB
:104580006815326E63516915336E30503110321038
:104590003310D8A4CEEF22F0D0EF22F0D2EF22F0E9
:1045A00088EF22F066C530F567C531F568C532F58C
:1045B00069C533F5200EE2EF22F0D8903332323263
:1045C00031323032E82EDDEF22F03050311032102F
:1045D0003310D8B4EEEF22F0F0EF22F0F8EF22F033
:1045E00060516627615167236251682363516923D3
:1045F000601D306E611D316E621D326E631D336E43
:1046000030506617315067173250681733506917AA
:104610004EEF23F066C530F567C531F568C532F554
:1046200069C533F5200E1AEF23F0D89033323232B9
:1046300031323032E82E15EF23F030503110321085
:104640003310D8A426EF23F028EF23F032EF23F025
:10465000000E666F000E676F000E686F000E696FC8
:104660004EEF23F0D8906635306E6735316E683581
:10467000326E6935336E3050311032103310D8B489
:1046800044EF23F046EF23F04EEF23F0000E666F69
:10469000000E676F800E686FBF0E696F66C52CF5E0
:1046A00067C52DF568C52EF569C52FF51200D6EF43
:1046B00023F0000E2C6E000E2D6E000E2E6E000EDE
:1046C0002F6ED6C530F5D7C531F5D8C532F5D9C569
:1046D00033F575EC24F0D8B070EF23F072EF23F0CF
:1046E000F1EF23F0010E0501F16FC396F1EF23F016
:1046F0000501F205D8A47FEF23F081EF23F0F1EF5D
:1047000023F0000EF26F020EF16FC386F1EF23F07B
:104710005B0E566F260E576FD6C558F6D7C559F69D
:10472000D8C55AF6D9C55BF69CEC2AF0D6C513F568
:10473000D7C514F5D8C515F5D9C516F5000E176EF1
:10474000000E186EC80E196E420E1A6E3DEC1FF068
:1047500013C5D6F514C5D7F515C5D8F516C5D9F5C1
:10476000970E0601566F260E576FD6C558F6D7C559
:1047700059F6D8C55AF6D9C55BF69CEC2AF0000E5E
:104780000501D66F000ED76F000ED86F000ED96FDF
:104790007A0E0601566F260E576F9CEC2AF05CECE1
:1047A0002BF0000E0501F16FF1EF23F00501F1513F
:1047B00006015E6F5F6B5F51000AD8B4E2EF23F031
:1047C000F1EF23F05E51000AD8B459EF23F0010A4B
:1047D000D8B478EF23F0030AD8B488EF23F0F1EFD0
:1047E00023F01200153416341C6E1C50D8A4FBEFB5
:1047F00023F0FDEF23F007EF24F0000E136E000E00
:10480000146E000E156E000E166E74EF24F013C5B4
:1048100017F514C518F515C519F516C51AF5200EA6
:1048200017EF24F0D8901A32193218321732E82EC6
:1048300012EF24F017501B6E158EFF0E1316FF0E8D
:104840001416FF0E1516000E1616960E1C5E1CBED4
:104850002EEF24F02CEF24F044EF24F01C50800ABB
:10486000970FD8B036EF24F038EF24F03AEF24F069
:10487000FDEF23F0D89016321532143213321C3E5D
:104880003AEF24F05CEF24F01F0E1C644AEF24F092
:104890004CEF24F054EF24F0FDEF23F0D8901336C2
:1048A0001436153616361C061C50D8A45AEF24F0C0
:1048B0005CEF24F04EEF24F01B50D8B462EF24F0EC
:1048C00064EF24F06CEF24F0161E151E141E136CFA
:1048D000000E14221522162213C513F514C514F563
:1048E00015C515F516C516F51200000E2C14346EFC
:1048F000000E2D14356E800E2E14366E7F0E2F1482
:10490000376E3450351036103710D8A48AEF24F0A3
:104910008CEF24F094EF24F0000E2C6E000E2D6E20
:10492000000E2E6E000E2F6E000E3014346E000E30
:104930003114356E800E3214366E7F0E3314376E9E
:104940003450351036103710D8A4A9EF24F0ABEF4F
:1049500024F0B3EF24F0000E306E000E316E000E26
:10496000326E000E336E2FAEB8EF24F0BAEF24F0A3
:10497000C3EF24F02C6C2D1ED8B02D2A2E1ED8B0DB
:104980002E2A800E2F5633AEC8EF24F0CAEF24F043
:10499000D3EF24F0306C311ED8B0312A321ED8B09B
:1049A000322A800E3356000E2C1A000E2D1A000EDD
:1049B0002E1A800E2F1A000E301A000E311A000E19
:1049C000321A800E331A30502C5C31502D58325030
:1049D0002E5833502F58D8B0F0EF24F0F2EF24F0D7
:1049E000F5EF24F0D890F6EF24F0D8801200D2C56D
:1049F0001DF5D3C51EF5D4C51FF5D5C520F513C5C6
:104A00001DF514C51EF515C51FF516C520F51DC5E8
:104A100017F51EC518F51FC519F520C51AF5180E8E
:104A200017EF25F0D8901A32193218321732E82EC3
:104A300012EF25F017501B6E1C6A1B501C10D8A4D7
:104A400024EF25F026EF25F046EF25F0D8901D3411
:104A5000176E1E34186E1F34196E20341A6E1750DC
:104A6000181019101A10D8A438EF25F03AEF25F0D5
:104A700040EF25F0000E146E020E136E75EF25F058
:104A8000000E146E030E136E75EF25F01B281C101C
:104A9000D8A44DEF25F04FEF25F071EF25F01DC59F
:104AA00017F51EC518F51FC519F520C51AF5090E0D
:104AB000D8901736183619361A36E82E58EF25F0E2
:104AC0001750181019101A10D8B469EF25F06CEFB0
:104AD00025F0010E6DEF25F0000E136E146A75EFD0
:104AE00025F0000E146E040E136E12004950020DD4
:104AF000AE0EF324D96E050EF420DA6EDE6ADD6A9E
:104B00000201B2A786EF25F088EF25F0A9EF25F086
:104B10004950020DAE0EF324D96E050EF420DA6E64
:104B20000501DF82E651E711E811D8B49AEF25F0CC
:104B30009CEF25F0A9EF25F002D8A9EF25F005009C
:104B4000FA6EE651FD6EE751FE6EE851FF6EFA50C7
:104B500012000201B2A3AFEF25F0B1EF25F0D2EFC2
:104B600025F04950020DAE0EF324D96E050EF42047
:104B7000DA6E0501DF84E351E411E511D8B4C3EF27
:104B800025F0C5EF25F0D2EF25F002D8D2EF25F0C1
:104B90000500FA6EE351FD6EE451FE6EE551FF6EC5
:104BA000FA501200A1C201F54928070B026E4850C5
:104BB0000218D8A4DEEF25F0E0EF25F0E2EF25F0B3
:104BC000EDEF25F0BE0E4924D96EDA6A050EDA2221
:104BD00001C5DFF402C549F5472A1200000EBE6E7A
:104BE000000EBF6E000EC06E000EC16E000EC26ED3
:104BF000000EC36EC668C768C868C9680F0ECA6E63
:104C0000F60ECB6E04010069EF0E086F106918698B
:104C1000070E206FF40E286F000E016F100E096F43
:104C2000000E116F000E196F000E216F000E296F1C
:104C3000000E026F000E0A6F000E126F000E1A6F48
:104C4000000E226F080E2A6F03690B6913691B6936
:104C5000070E236F2B6904690C6914691C690F0E18
:104C6000246F2C69000E0201896F000E886F000E00
:104C7000876F000E866F290E726F0C0E436F200E29
:104C8000296F000E0401056F000E066F000E076FFE
:104C9000000E0D6F000E0E6F000E0F6F000E156FE1
:104CA000000E166F000E176F000E256F000E266F98
:104CB000000E276F1200FAC411F5FBC412F5A1A86B
:104CC00064EF26F066EF26F071EF26F0B1A86BEFE7
:104CD00026F06DEF26F071EF26F0DFEC29F0BFEF44
:104CE00026F0A1AA76EF26F078EF26F083EF26F0E3
:104CF000B1AA7DEF26F07FEF26F083EF26F06DEC72
:104D00002AF0BFEF26F0A2A288EF26F08AEF26F065
:104D1000A1EF26F0B2A28FEF26F091EF26F0A1EFDF
:104D200026F002D89FEF26F00500FA6E0501FC512F
:104D3000FD6EFD51FE6EFE51FF6EFA501200BFEF88
:104D400026F0A2A0A6EF26F0A8EF26F0BFEF26F0EF
:104D5000B2A0ADEF26F0AFEF26F0BFEF26F002D8FD
:104D6000BDEF26F00500FA6E0501F951FD6EFA510E
:104D7000FE6EFB51FF6EFA501200BFEF26F012C517
:104D8000FBF411C5FAF41100000E216E000E206E26
:104D900019C5D9F41AC5DAF4DEC4F6F4DDC4F7F4A3
:104DA000000EF86E0800F5502A0AD8A4DAEF26F0B3
:104DB000DCEF26F010EF27F019C5D9F41AC5DAF4A4
:104DC000DE2A000EDD221BC5D9F41CC5DAF4DFC4CF
:104DD0001DF5020EDE26DFC41EF5000EDD221DC508
:104DE000D9F41EC5DAF4DEC420F5DDC421F526EFC2
:104DF00027F020C513F521C514F5000E166E0A0E16
:104E0000156EB0EC2AF01F501324206E000E1420F3
:104E1000216E19C5D9F41AC5DAF4DE2A000EDD2296
:104E200019C5D9F41AC5DAF4DEC4F6F4DDC4F7F412
:104E3000000EF86E0800F550D00F1F6E090E1F64AB
:104E400024EF27F026EF27F0F9EF26F020C519F51B
:104E500021C51AF5120018501910D8B432EF27F0F6
:104E600034EF27F03DEF27F018501910D8A43BEF8E
:104E700027F03DEF27F042EF27F01650F6EC2AF02E
:104E80008FEF27F020EE0AF01850D9261950DA22B9
:104E9000DE50DE10D8B44FEF27F051EF27F06CEF63
:104EA00027F020EE0AF01850D9261950DA2210EE19
:104EB00003F01850E1261950E222DE50E65CE6507D
:104EC000800A1E6EDE50800A1E58D8B06AEF27F0A6
:104ED0006CEF27F08FEF27F020EE03F01850D92663
:104EE0001950DA22DEC41AF5DDC41BF518C5D9F451
:104EF00019C5DAF4DEC41CF5DDC41DF51A501C24F6
:104F0000D96E1B501D20DA6E16C5DFF420EE03F0BB
:104F10001850D9261950DA22DE2A000EDD2212009E
:104F2000A290EC0E0501F96F4A0EFA6F000EFB6FAE
:104F3000A2926E0EFC6F540EFD6F000EFE6F000EFF
:104F40000201A16F000EA26F000EA36F000EA46FEE
:104F5000000EA56F000EA66F000EA76F000EA86FC3
:104F6000000EA96F000EAA6FB00EAB6F800EAC6F73
:104F7000080EAD6FE10EAE6F040EAF6F2E0EB06F68
:104F8000000EB16F800EB26F000EB36FC00E136EC5
:104F9000560E146E000E156EE5EC2AF0BE0E136E62
:104FA000560E146E000E156ED4EC2AF0000E136E21
:104FB000000E146E000E156EC3EC2AF0000E0501F3
:104FC000EF6F000EEE6F000E4C6E000E4B6E080E73
:104FD0004A6E000E496E000E486E000E476EA280AB
:104FE0001200000E13141B6E000E14141C6E800EA3
:104FF00015141D6E7F0E16141E6E1B501C101D10F6
:105000001E10D8A406EF28F008EF28F010EF28F0C3
:10501000000E136E000E146E000E156E000E166E4E
:10502000000E17141B6E000E18141C6E800E19143F
:105030001D6E7F0E1A141E6E1B501C101D101E10AC
:10504000D8A425EF28F027EF28F02FEF28F0000E46
:10505000176E000E186E000E196E000E1A6E1750A5
:1050600013180FE1185014180CE11950151809E124
:105070001A501618D8B43FEF28F041EF28F044EF4B
:1050800028F0D89045EF28F0D88012002BBE4BEFC7
:1050900028F04DEF28F053EF28F02AC52FF52BC547
:1050A00030F557EF28F0000E306E000E2F6E000E18
:1050B0002E6E000E2D6E69EF28F0000E176E200E7A
:1050C000166E26C518F527C519F52BEC27F02D4AC5
:1050D0002E2A2F502D5C2E50800A2C6E3050800AC4
:1050E0002C58D8A076EF28F078EF28F05DEF28F064
:1050F00028C51FF529C520F526C521F527C522F5A8
:105100009DEC29F0120016BE92EF28F016501510F3
:10511000141006E11304D8B090EF28F092EF28F0B5
:10512000ADEF28F013C517F514C518F515C519F519
:1051300016C51AF5171E181E191E1A1E172A000E5C
:10514000182219221A2217C513F518C514F519C506
:1051500015F51AC516F5B5EF28F013C513F514C5E6
:1051600014F515C515F516C516F5120052C6ACF5A1
:1051700053C6ADF5CBEF28F050C69DF551C69EF550
:10518000AC0E05019F6F050EA06F54C6A1F555C664
:10519000A2F50AEC21F0ACC5F6F4ADC5F7F4000EAB
:1051A000F86E0800F5500009D8A4D9EF28F0DBEF1D
:1051B00028F0BCEF28F0000E0601516F000E506F72
:1051C000120003011E91900E1F6F000E206F010E42
:1051D000216FC50E1D6F670E1C6F1D51166E1C5181
:1051E000456E16C546F5A40E136E540E146E000ED1
:1051F000156E35EC2BF0B00E136E560E146E000EBD
:10520000156E3CEC2BF0B198A188B19AA18A350EAD
:1052100003011E6F120015C51CF516C51DF513C53B
:105220001AF514C51BF525EF29F01CC5D9F41DC5C9
:10523000DAF4DF50196E1C4A1D2A1AC5D9F41BC5B1
:10524000DAF419C5DFF41A4A1B2A1706D8A0180683
:10525000172806E11828D8A430EF29F032EF29F0FA
:1052600015EF29F01200146EA2B239EF29F03BEFCE
:1052700029F03FEF29F014C5A3F256EF29F04A5068
:10528000D8B445EF29F047EF29F056EF29F0C60EC4
:105290004C24D96EDA6A050EDA2214C5DFF44C28E4
:1052A000070B136E13C54CF5A2924A06A282120098
:1052B000000E301A000E311A000E321A800E331A08
:1052C0002CC513F52DC514F52EC515F52FC516F5EE
:1052D00030C517F531C518F532C519F533C51AF5BE
:1052E00068EC18F013C52CF514C52DF515C52EF571
:1052F00016C52FF5120015C517F516C518F513C5F7
:1053000019F514C51AF517C5F6F418C5F7F4174AB8
:10531000182A000EF86E19C5D9F41AC5DAF4194A1C
:105320001A2A0800F5C4DFF4DF50D8A49AEF29F058
:105330009CEF29F083EF29F01200000E256E000E7D
:10534000246EAEEF29F023C516F5176A21C518F5AE
:1053500022C519F52BEC27F0244A252A24501F24B6
:10536000D96E25502020DA6EDF50236E2350D8A44A
:10537000BCEF29F0BEEF29F0A3EF29F01200D69A76
:10538000AF90D680000E136E000E146E000E156ED8
:1053900051EC2BF0B490D682000E136E000E146EFA
:1053A000000E156E4AEC2BF0B890D684000E136EEA
:1053B000000E146E000E156E43EC2BF01200B19827
:1053C00045C501F546C502F587EC2AF00501F65101
:1053D000F711F811D8B4EFEF29F0F1EF29F0FEEF53
:1053E00029F002D8FEEF29F00500FA6EF651FD6EA5
:1053F000F751FE6EF851FF6EFA501200120001EEE6
:1054000000F2500EEE6AE806FDE101EEAEF1450E47
:10541000EE6AE806FDE101EE3AF1130EEE6AE806E7
:10542000FDE10401080E5D6F000E5E6F000E5F6F00
:10543000000113EF2BF01350141015101610D8B4F0
:1054400024EF2AF026EF2AF02EEF2AF0000E131A8E
:10545000000E141A000E151A800E161A13C513F535
:1054600014C514F515C515F516C516F51200080E68
:105470004A603DEF2AF03FEF2AF050EF2AF0C60EC7
:105480004B24D96EDA6A050EDA22DF500201A36FCF
:105490004B28070B016E01C54BF54A2A51EF2AF044
:1054A000A2921200D6C501F5D7C502F5D8C503F5FD
:1054B000D9C504F5000E056E000E066E800E076E4F
:1054C0003F0E086EC8EC1AF001C5D6F502C5D7F537
:1054D00003C5D8F504C5D9F51200B19A0501F351F9
:1054E000F411F511D8B477EF2AF079EF2AF086EFAE
:1054F0002AF002D886EF2AF00500FA6EF351FD6E0D
:10550000F451FE6EF551FF6EFA50120012000301C5
:105510001EA58DEF2AF08FEF2AF097EF2AF01E914B
:1055200002501D6F01C51CF31E819BEF2AF0025033
:105530001D6F01C51CF31200580E06015C6F060EAC
:105540005D6F000E506F000E516F56C652F657C673
:1055500053F65C0E546F060E556FB6EC28F0120031
:1055600013501502F3C417F5F4C418F513501602BE
:10557000F350182614501502F350182617C513F5CA
:1055800018C514F51200135014101510D8B4CBEF31
:105590002AF0CDEF2AF0D3EF2AF013C5E0F514C5B9
:1055A000E1F515C5E2F51200135014101510D8B42A
:1055B000DCEF2AF0DEEF2AF0E4EF2AF013C5E3F582
:1055C00014C5E4F515C5E5F51200135014101510B7
:1055D000D8B4EDEF2AF0EFEF2AF0F5EF2AF013C57B
:1055E000E6F514C5E7F515C5E8F51200156E1FECD4
:1055F0002BF00009D8B4FFEF2AF001EF2BF0F7EF02
:105600002AF0155033EC29F01200600E0001AD6F46
:10561000000EAF6F000EB36F070EB16F000EB06FCC
:10562000000EAC6F12002AEC2BF0D68E5CEC2BF047
:10563000C38657EC23F019EF2BF00DEF00F04A5022
:10564000D8A425EF2BF028EF2BF0010E29EF2BF03B
:10565000000E120005EC2BF0EEEC25F0E1EC28F04A
:1056600090EC27F0BFEC29F0120013C5F6F514C535
:10567000F7F515C5F8F5120013C5F3F514C5F4F5E3
:1056800015C5F5F5120013C53AF514C53BF515C55A
:105690003CF5120013C53DF514C53EF515C53FF5A3
:1056A000120013C540F514C541F515C542F51200A9
:1056B000010E0501F26F120003011F871200120094
:0256C0001200D6
:020000040030CA
:08000000FFFFF7FF9FFFFFFF68
:01000900FFF7
:00000001FF
